:020000040800F2
:10000000780400204501000841090008870800081D
:10001000C1080008D50100084120000800000000C8
:10002000000000000000000000000000191A000895
:100030003D0700080000000089110008211B00088E
:100040005F0100085F0100085F0100085F01000810
:100050005F0100085F0100085F0100085F01000800
:100060005F0100085F0100085F0100085F010008F0
:100070005F0100085F0100085F0100085F010008E0
:100080005F0100085F0100085F0100085F010008D0
:100090005F0100085F0100085F0100085F010008C0
:1000A0005F0100085F0100085F0100085F010008B0
:1000B0005F0100085F0100085F0100085F010008A0
:1000C0005F0100085F0100085F0100085F01000890
:1000D0005F0100081D1C00085F0100085F010008A7
:1000E0005F0100085F0100085F0100085F01000870
:1000F0005F0100085F0100085F0100085F01000860
:100100005F0100085F0100085F0100085F0100084F
:100110005F0100085F0100085F0100085F0100083F
:100120005F0100085F0100085F0100085F0100082F
:10013000DFF80CD000F03CF80048004765210008CB
:10014000780400200648804706480047FEE7FEE79F
:10015000FEE7FEE7FEE7FEE7FEE7FEE7FEE7FEE777
:10016000A51B00083101000840EA01039B0703D0EA
:1001700009E008C9121F08C0042AFAD203E011F8E6
:10018000013B00F8013B521EF9D27047D2B201E0A8
:1001900000F8012B491EFBD270470022F6E710B58C
:1001A00013460A4604461946FFF7F0FF204610BDE5
:1001B000064C074D06E0E06840F0010394E80700B4
:1001C00098471034AC42F6D3FFF7B6FF3825000845
:1001D0005825000800BFFEE770B502460B46002117
:1001E0000025002400BF12E0505C00F00F05505CB9
:1001F0000411E84345EA0010012606EB4106985534
:10020000E04344EA001003F81100481CC1B206297B
:10021000EADB002070BD70B505460C460026284676
:1002200001F078FB064626EA0401284601F00AFFA1
:1002300070BD2DE9F04786B005460F469046002474
:10024000002605A9522001F063F9044624B105A94E
:10025000522001F05DF9044604A903A801F0ADF8AD
:1002600004461CBB69464046FFF7B6FF0446ECB99E
:10027000684600F0DCFB0446C4B94FF060090B2F60
:1002800001D14FF0610900260DE006EB850000F07A
:10029000FF0A03AA5146484600F0E2FB044604B1B7
:1002A00003E0701CC6B2042EEFDB00BF204606B090
:1002B000BDE8F0872DE9F04F87B005460E4617469A
:1002C0009846DDF840B0002406EB850000F0FF0AF8
:1002D00006A9522001F01CF9044624B106A95220B7
:1002E00001F016F9044605A904A801F066F80446D1
:1002F000E4B901A94046FFF76FFF0446B4B901A86D
:1003000000F095FB04468CB94FF060090B2F01D12A
:100310004FF0610904AA5146484600F0A1FB04468B
:1003200024B95946504601F0A5F80446204607B0C6
:10033000BDE8F08F2DE9F04F87B005460E46174611
:100340009846DDF840B0002406EB850000F0FF0A77
:1003500006A9522001F0DCF8044624B106A9522077
:1003600001F0D6F8044605A904A801F026F80446D1
:10037000E4B901A94046FFF72FFF0446B4B901A82C
:1003800000F055FB04468CB94FF060090B2F01D1EA
:100390004FF0610904AA5146484600F061FB04464B
:1003A00024B95946504601F0B8F90446204607B032
:1003B000BDE8F08FF8B505460E466946522001F0BB
:1003C000A7F804466CB114F1180F05D1FF208DF881
:1003D00001008DF8000006E06946522001F098F80F
:1003E00004462CB900BF3146284600F0E6FF04461B
:1003F0002046F8BD2DE9F04F8BB006460F469046DB
:100400009946149D002400200190029003900490CE
:1004100007EB860000F0FF0B0AA9522001F078F8E4
:10042000044624B10AA9522001F072F8044609A931
:1004300008A800F0C2FF0446002C7AD105A948465E
:10044000FFF7CAFE0446002C73D105A800F0EFFAAE
:100450000446002C6DD14FF0600AB8F10B0F01D1AA
:100460004FF0610A08AA5946504600F0F9FA0446CE
:10047000002C5ED101A9584600F0FCFF04469DF80F
:1004800004009DF80C10884251D19DF805009DF89C
:100490000D1088424BD19DF806009DF80E10884241
:1004A00045D19DF807009DF80F1088423FD19DF877
:1004B0000400C043C0B28DF804009DF80500C0439D
:1004C000C0B28DF805009DF80600C043C0B28DF89B
:1004D00006009DF80700C043C0B28DF807009DF8E4
:1004E00008009DF8041088421ED19DF809009DF86F
:1004F0000510884218D19DF80A009DF80610884220
:1005000012D19DF80B009DF8071088420CD19DF880
:100510000C0028709DF80D0068709DF80E00A87002
:100520009DF80F00E87004E06FF0400401E06FF008
:10053000400420460BB0BDE8F08F2DE9F04F87B0A6
:1005400005460E4617469846DDF840A0002406EB07
:10055000850000F0FF0B06A9522000F0D9FF0446E9
:1005600024B106A9522000F0D3FF044605A904A82F
:1005700000F023FF0446ECB901A94046FFF72CFE2A
:100580000446BCB901A800F052FA044694B94FF0F1
:1005900060090B2F01D14FF0610904AA5946484662
:1005A00000F05EFA04462CB952465946C02001F0CC
:1005B00021F80446204607B0BDE8F08F2DE9F04F42
:1005C0008BB00746884691469A46149C0025002029
:1005D000019002900390049008EB8700C6B20AA92C
:1005E000522000F095FF054625B10AA9522000F0DF
:1005F0008FFF054609A908A800F0DFFE0546002D7B
:1006000057D105A95046FFF7E7FD0546002D50D10B
:1006100005A800F00CFA0546002D4AD14FF0600BFA
:10062000B9F10B0F01D14FF0610B08AA31465846C2
:1006300000F016FA0546E5BB20788DF804006078D6
:100640008DF80500A0788DF80600E0788DF8070099
:100650002078C043C0B28DF808006078C043C0B2B3
:100660008DF80900A078C043C0B28DF80A00E07888
:10067000C043C0B28DF80B0020788DF80C00607874
:100680008DF80D00A0788DF80E00E0788DF80F0041
:100690008DF81060F043C0B28DF811008DF8126033
:1006A000F043C0B28DF8130001A9304601F035F8CF
:1006B000054628460BB0BDE8F08F2DE9F04F87B016
:1006C00005460E4617469846DDF840A0002406EB86
:1006D000850000F0FF0B06A9522000F019FF044628
:1006E00024B106A9522000F013FF044605A904A86E
:1006F00000F063FE0446ECB901A94046FFF76CFD2B
:100700000446BCB901A800F092F9044694B94FF030
:1007100060090B2F01D14FF0610904AA59464846E0
:1007200000F09EF904462CB952465946C12000F00B
:1007300061FF0446204607B0BDE8F08F7047000017
:1007400001B50849009808604FF0E020006940F0CA
:1007500001004FF0E021086100BF02480068002856
:10076000FBD108BD280000202DE9F04102460025FC
:100770000026002000230024002791F803C00CF07D
:100780000F0591F803C00CF0100CBCF1000F03D062
:1007900091F802C04CEA050591F800C0BCF1000FC9
:1007A00031D0146800202BE04FF0010C0CFA00F35C
:1007B000B1F800C00CEA03069E4220D183004FF03E
:1007C0000F0C0CFA03F7BC4305FA03FC4CEA0404D3
:1007D00091F803C0BCF1280F06D14FF0010C0CFAC0
:1007E00000FCC2F814C00AE091F803C0BCF1480F45
:1007F00005D14FF0010C0CFA00FCC2F810C0401CEF
:100800000828D1D31460B1F800C0BCF1FF0F34DD6B
:10081000546800202EE000F1080C4FF0010808FA9F
:100820000CF3B1F800C00CEA03069E4221D183000C
:100830004FF00F0C0CFA03F7BC4305FA03FC4CEA2B
:10084000040491F803C0BCF1280F05D100F1080C95
:1008500008FA0CF8C2F8148091F803C0BCF1480FF4
:1008600007D100F1080C4FF0010808FA0CF8C2F8A3
:100870001080401C0828CED35460BDE8F08141614F
:1008800070470161704700BFFEE7000008B5012115
:10089000082000F0C5FF0120ADF8000010208DF801
:1008A000030003208DF8020069460448FFF75CFF4F
:1008B00001210248FFF7E5FF08BD0000000C0140E0
:1008C00000BFFEE730B589B06D46284601F0A2FCB6
:1008D0001648007858B1002014490870284601F0E5
:1008E00070FC0120124908601248FFF729FF1248E6
:1008F0000078C0B1002010490870284601F04CFC77
:1009000000240EE001200A4908600C48FFF718FF98
:1009100001200749091F08600848FFF711FF601C04
:10092000C4B2032CEEDB09B030BD00003000002063
:10093000140C014040420F003100002090D0030011
:100940007047000070B5002100230F22C47804B363
:10095000154C246804F4E064C4F5E064210AC1F194
:100960000403CA40447804FA03F184781440214314
:1009700009010E4C0678A155047804F01F050124E6
:10098000AC4005786D11AD0005F1E025C5F80041DA
:1009900009E0047804F01F050124AC40044D0678FA
:1009A000761145F8264070BD0CED00E000E400E053
:1009B00080E100E008B50121182000F031FF4FF47C
:1009C0008850ADF8000003208DF8020010208DF84B
:1009D000030069460848FFF7C7FE4FF45060ADF8C2
:1009E000000003208DF8020010208DF803006946F6
:1009F0000248FFF7B9FE08BD000C0140001001409D
:100A000010B503211120FFF706FC002010BD10B522
:100A1000112000F07FFF044604F0030008B100201D
:100A200010BD0321112000F0F8FF0020F8E770B599
:100A3000A4B0044601AE032000F048FB19208DF855
:100A400004000C2002902068039060680490A06865
:100A50000590304600F046F80546284624B070BDA3
:100A60002DE9F041A4B005460E46174600240DF1CD
:100A700004080F21222001F0E5FA032000F026FBF4
:100A80000C208DF80400062002908DF80C508DF893
:100A90000D603968CDF80E10404600F023F804468A
:100AA000E4B9052000F036FF00F0070010B16FF048
:100AB0000A0413E014208DF8040000200290404640
:100AC00000F010F804464CB9092000F023FF00F0B4
:100AD000080008B1002401E06FF00304204624B0B0
:100AE000BDE8F0812DE9FE4F04464FF000090020DB
:100AF0000290824601902078122837D00DDC07281A
:100B000029D005DCB0B1012819D0032850D11BE051
:100B10000B2821D00C284BD123E0192837D004DC36
:100B2000142828D0162843D12AE01A2834D01E28A9
:100B30003ED136E04FF0000A002001903CE04FF03B
:100B4000110A1020019037E04FF0070A04200190AD
:100B50004FF0010930E000BF4FF0050A042001907A
:100B60002AE04FF0050A0C20019025E04FF0110A11
:100B70001020019020E04FF0040A042001901BE0B7
:100B80004FF0060A042001904FF0010914E04FF0E5
:100B9000050A042001900FE04FF0050A042001909F
:100BA0000AE04FF03D0A082001904FF0010903E0F0
:100BB0006FF01600029000BF00BF029800287DD1A0
:100BC0007F21062001F03EFA7F21072001F03AFA4A
:100BD0000021012001F036FA00F00BFA4AF0200A59
:100BE0004AF08001062001F02DFA0020C4F88800A8
:100BF0006068402802D94020009001E060680090C1
:100C0000002506E004F10800415D022001F01AFA17
:100C10006D1C00988542F5D3D4F8881000980844DC
:100C2000C4F888002178012001F00CFA0221092083
:100C300000F0F3FE11E0042000F06CFE3E280CDA18
:100C400004F10800D4F88820815C022001F0FAF950
:100C5000D4F88800401CC4F888006168D4F8880083
:100C60008842E8D30020C4F888004FF4545B00BFEA
:100C7000ABF1010B072000F04DFE064606F0100018
:100C8000B8B1042000F046FE202812DD002509E05E
:100C9000022000F03FFED4F888104A1904F1080140
:100CA00088546D1C202DF3D3D4F888002030C4F86C
:100CB000880006EA0A0000F0200000E039E128B9C7
:100CC0000198304010B9BBF1000FD1D16FF07C001A
:100CD000029001983040002871D0BBF1000FFBD08A
:100CE0001E2500E06D1E002DFCD10A2000F012FE32
:100CF000804608F01F0068BB00200290B9F1000F89
:100D000022D0042000F006FE064600BF09E00220C3
:100D100000F000FED4F888104A1904F10801885444
:100D20006D1CB542F3D3D4F888003044C4F8880071
:100D3000052000F0EFFD00F0070737B1D4F8880078
:100D4000401E07EBC0006060E3E0D4F88800C000FC
:100D50006060DEE008F0010080B36FF017000290E1
:100D60000120C4F888000B2000F0D4FD2072B9F1F6
:100D7000000FE9D0042000F0CDFD0646002509E073
:100D8000022000F0C7FDD4F888104A1904F10801C8
:100D900088546D1CB542F3D3D4F888003044C4F8AD
:100DA0008800052000F0B6FD00F0070747B1D4F831
:100DB0008800401E07EBC0006060AAE005E092E0FA
:100DC000D4F88800C0006060A3E008F0020070B3AF
:100DD0006FF004000290B9F1000F22D0042000F05F
:100DE00099FD0646002509E0022000F093FDD4F8A5
:100DF00088104A1904F1080188546D1CB542F3D3D8
:100E0000D4F888003044C4F88800052000F082FD42
:100E100000F0070737B1D4F88800401E07EBC00088
:100E2000606076E0D4F88800C000606071E0FFE7A1
:100E300008F0040018B16FF01400029069E008F0A7
:100E4000080070B36FF001000290B9F1000F60D09C
:100E5000042000F05FFD0646002509E0022000F0B6
:100E600059FDD4F888104A1904F1080188546D1C02
:100E7000B542F3D3D4F888003044C4F88800052084
:100E800000F048FD00F0070737B1D4F88800401E95
:100E900007EBC00060603CE0D4F88800C0006060F0
:100EA00037E0FFE708F0100018B16FF06C00029017
:100EB0002FE008F0200048B12078012802D02078E7
:100EC000032826D16FF01500029022E008F0800080
:100ED000F8B12078192802D020780B2819D16FF0AA
:100EE0000800029015E006EA0A0000F0200018B1A0
:100EF0004FF0FF3002900CE00A2000F00BFD00F0F4
:100F0000170018B96FF01A00029002E06FF07C0031
:100F100002907F21062001F095F87F21072001F043
:100F200091F80421092000F078FD0021012001F052
:100F300089F8029840B2BDE8FE8F10B50446412CF6
:100F400052D100211F2001F07DF840211F2001F027
:100F500079F86420FFF7F4FB40211F20FFF75BF9CD
:100F6000AD211B2001F06EF8FF211C2001F06AF872
:100F700001211E2001F066F81A21292001F062F8F3
:100F800002212B2001F05EF803212D2001F05AF8F8
:100F90005B21112001F056F81321152001F052F8C1
:100FA0007321192001F04EF808211A2001F04AF8A7
:100FB0006321232001F046F86321242001F042F848
:100FC00007212A2001F03EF80A212C2001F03AF8EE
:100FD000012000F07BF8FFF713FD4FF47A70FFF764
:100FE000AFFBFFF714FD02E04FF0FF3010BD002013
:100FF000FCE710B50121092000F00FFD10BD000035
:1010000070B5002544F250642E48C06840F48070EA
:101010002C49C8602C48006820F480702A49086078
:101020002848C06840F400602649C8600846C06887
:1010300040F48060C8600846C06820F48070C860D2
:101040002148006820F480501F49086046F2A8102B
:10105000FFF776FB1C48006840F480501A4908608E
:1010600040F6C410FFF76CFB1748006820F480506E
:101070001549086000E0641E012000F04BFC00F000
:101080003F003F2801D0002CF5D100BF012000F027
:1010900041FC00F03F0008B1002CF7D114B96FF00B
:1010A00018050DE08021002000F0CCFF012000F0A9
:1010B00031FC08B16FF019050021084600F0C2FFAD
:1010C000284670BD001001400C0C014010B50446CC
:1010D000092C4ED2DFE804F04D050E172029323BD3
:1010E000440007212A2000F0ADFF6A212C2000F0E7
:1010F000A9FF47E007212A2000F0A4FFA0212C200F
:1011000000F0A0FF3EE009212A2000F09BFF812192
:101110002C2000F097FF35E009212A2000F092FFF3
:10112000A0212C2000F08EFF2CE009212A2000F0C5
:1011300089FFFF212C2000F085FF23E00B212A20CE
:1011400000F080FFFF212C2000F07CFF1AE00D2131
:101150002A2000F077FFFF212C2000F073FF11E020
:101160000F212A2000F06EFFFF212C2000F06AFFE3
:1011700008E007212A2000F065FF21462C2000F01E
:1011800061FF00BF00BF10BD70472DE9F04FA9B04F
:1011900081468A46002027900024259026908021B1
:1011A00003A8FEF7FAFF01A8009028211A2000F0FA
:1011B00049FF08210920FFF72EF80321222000F023
:1011C00041FF0320FFF782FF00BF2046E11704EB39
:1011D0005171C910A4EBC101CEB29EB1E11704EB6D
:1011E0005171C910491CC9B2289106EB0610C1B251
:1011F0000F2000F027FF072E0BD131460F2000F003
:1012000021FF06E02046E11704EB5171C1F3C7014D
:1012100028911E208DF804008DF80CA02046E117BF
:1012200004EB5171C910202202EB011106F00F02EC
:101230001144CAB28DF80D20002506E025A8425DB4
:1012400003A8A91C4254681CC5B228988542F5DB46
:101250002898801C02900098FFF744FC0746072E50
:1012600036D1029800F0070010B92398401C239053
:10127000002024909DF80C00A8B101250FE003A8E0
:1012800010F805B02498411003A8405D41EAC01051
:10129000C1B203A84155CDF890B0681CC5B22398DF
:1012A000A842ECD814E000250FE003A810F805B020
:1012B0002498411003A8405D41EAC010C1B203A8C0
:1012C0004155CDF890B0681CC5B22398A842ECD81F
:1012D0002046E11704EB5171C91025AA12F80180CC
:1012E00007F1180028BB00250CE003A96A1C895CE3
:1012F0002046E21704EB527205EBE20225AB99544B
:10130000681CC5B22398A842EFD8E11704EB5171CD
:10131000C91025AA515C41EA08012046E21704EBF6
:101320005272D21025AB99549DF80C002044C4B2DF
:101330001FE0F7B900250AE02398401B401E03A9CF
:10134000085CC5F1040125AA5054681CC5B2239855
:10135000A842F1D8E11704EB5171C91025AA515CDC
:1013600041EA08012046E21704EB5272D21025AB85
:10137000995407F1180000283FF427AFAFB90025B2
:101380000AE025A8405D09F8050025A8405D2799D9
:1013900048402790681CC5B2042DF2DB25A8415DAA
:1013A0002798814201D06FF07C0720211A20FEF798
:1013B00032FF384629B0BDE8F08FF8B504460F4635
:1013C00093212046FFF7E1FE0646002E50D19322DE
:1013D0006946204600F0CFF80646002E46D104208C
:1013E00038709DF8000000F0040000283ED0002571
:1013F00004E0681C205C6055681CC5B2032DF8DB56
:101400009521E01CFFF7C1FE06466EBB952269469A
:10141000E01C00F0B0F8064626BB072038709DF8A7
:10142000000000F0040008B3002505E0281D215C41
:10143000E81C2154681CC5B2032DF7DB9721A01DC1
:10144000FFF7A3FE06465EB997226946A01D00F08D
:1014500092F8064616B90A20387007E03046F8BD03
:101460003046FCE73046FAE73046F8E73046F6E724
:101470003046F4E7F0B5A3B005460E466F460320AC
:10148000FFF724FE0F21222000F0DCFD1E208DF846
:1014900000000220019030208DF808008DF80950DE
:1014A0003846FFF71FFB04465CB90198802802D03C
:1014B0006FF00A041FE0102202A93046FEF754FE26
:1014C00019E0601C90B1019804280FD19DF8080024
:1014D00000F00F008DF808009DF8080000F00A00E9
:1014E00010B96FF0090401E06FF00504102203A1A8
:1014F0003046FEF739FE204623B0F0BD30303030A4
:10150000303030303030303030303030000000009B
:10151000F0B5A3B005460C466F460321222000F02B
:1015200091FD08210920FEF776FE07210F2000F02B
:1015300089FD0321112000F070FA0420FFF7C6FD99
:101540001E208DF80000012001908DF808503846CB
:10155000FFF7C8FA064666B90198102803D06FF065
:101560000A0023B0F0BD9DF8080020709DF8090026
:1015700060703046F5E72DE9F047A4B005460F4608
:1015800090464FF000090DF1040A0F21222000F0CF
:1015900059FD08210920FEF73EFE0420FFF796FDC5
:1015A0001E208DF804008DF80C8070218DF80D1030
:1015B000002408E0285D80EA09092A5D03A8A11C2F
:1015C0004254601CC4B2042CF4DB8DF81290072046
:1015D00002905046FFF786FA064626B90298082878
:1015E00001D06FF00A069DF80C003870304624B028
:1015F000BDE8F0872DE9F041A4B006460D46174638
:101600000DF104080120FFF761FD0721222000F001
:1016100019FD1E208DF80400022002908DF80C6048
:101620008DF80D504046FFF75DFA0446601CF8B196
:101630000298042802D06FF00A0419E09DF80C000B
:1016400000F00F008DF80C009DF80C0020B101286F
:1016500007D00A2808D102E06FF0090407E000244F
:1016600005E06FF07B0402E06FF0050400BF00BFEF
:10167000F4B90320FFF72AFD1E208DF80400042092
:1016800002900DF10408386803904046FFF72AFAEB
:1016900004463CB90298042802D06FF00A0407E01F
:1016A000002405E0601C08B9002401E06FF07C0410
:1016B0007CBB1E208DF8040002200290B0208DF823
:1016C0000C008DF80D504046FFF70CFA0446601CE4
:1016D000F8B10298042802D06FF00A0419E09DF8CE
:1016E0000C0000F00F008DF80C009DF80C0020B1EC
:1016F000012807D00A2808D102E06FF0090407E0AA
:10170000002405E06FF07B0402E06FF0050400BFE9
:1017100000BF204624B0BDE8F081F0B5A3B0054677
:101720000E466F460120FFF7D1FC0721222000F072
:1017300089FC1E208DF8000002200190A0208DF869
:1017400008008DF809503846FFF7CCF90446601CB4
:10175000D0B10198042802D06FF00A0414E09DF87B
:10176000080000F00F008DF808009DF8080010B187
:101770000A2805D102E06FF0090404E0002402E029
:101780006FF0050400BF00BF3CBB0420FFF79EFCC8
:101790001E208DF80000102001901022314602A872
:1017A000FEF7E2FC3846FFF79DF90446601CA0B145
:1017B0009DF8080000F00F008DF808009DF8080063
:1017C00010B10A2805D102E06FF00E0404E00024F5
:1017D00002E06FF0050400BF00BF204623B0F0BD5B
:1017E00010B50E48FEF7ACFFFFF70AFC044634B113
:1017F00042F21070FEF7A4FFFFF702FC044634B17A
:1018000042F21070FEF79CFFFFF7FAFB04461CB98A
:101810004120FFF792FB0446204610BDA086010040
:1018200029B1064A92690243044B9A6104E0034AD3
:1018300092698243014B9A61704700000010024098
:1018400030B500210022002400232D4D6D6805F0E5
:101850000C0121B1042905D0082923D105E0294D27
:10186000056022E0274D05601FE0254D6D6805F4F9
:101870007012234D6D6805F48034022505EB924209
:101880001CB9214D554305600BE01D4D6D6805F4F5
:1018900000351DB11C4D5543056002E0194D5543FF
:1018A000056002E0174D056000BF00BF144D6D6874
:1018B00005F0F0010909154D6B5C0568DD404560D8
:1018C0000F4D6D6805F4E061090A104D6B5C4568C9
:1018D000DD4085600A4D6D6805F46051C90A0B4D05
:1018E0006B5C4568DD40C560054D6D6805F44041A1
:1018F000890B074D6B5CC568B5FBF3F5056130BD21
:101900000010024000127A0000093D00140000207F
:1019100024000020F8B50546FF20ADF800000320A4
:101920008DF8020010208DF8030069463848FEF754
:101930001BFF3748C06840F480703549C86035489F
:10194000006820F48070334908603148C06840F472
:1019500000602F49C8600846C06840F48060C860D5
:10196000E9B22B48FEF78DFFE843C1B22848FEF7E5
:1019700086FF0A2400E0641E002CFCD12548006884
:1019800040F48070234908600A2400E0641E002CA3
:10199000FCD12048006820F480701E4908600A24A9
:1019A00000E0641E002CFCD11948C06820F480704F
:1019B0001749C860FF20ADF8000003208DF8020031
:1019C00004208DF8030069461148FEF7CDFE0A2475
:1019D00000E0641E002CFCD10D48C06820F480603B
:1019E0000B49C8600A2400E0641E002CFCD10848A2
:1019F0008068C6B20648C06840F480600449C86088
:101A00000846C06840F48070C8603046F8BD0000E9
:101A1000001001400C0C0140704770B505460C46A3
:101A200000262846FFF776FF064646EA04012846C8
:101A300000F008FB70BD10B500F002F810BD00000A
:101A40000CB50020019000903348006840F48030CD
:101A50003149086000BF3048006800F40030009051
:101A60000198401C0190009818B90198B0F5A06F3A
:101A7000F1D12948006800F4003010B10120009035
:101A800001E0002000900098012843D1234800681D
:101A900040F01000214908600846006820F003006B
:101AA00008600846006840F0020008601A48406874
:101AB000194948600846406848600846406840F454
:101AC000806048600846406820F47C104860084602
:101AD000406840F4E81048600846006840F08070B4
:101AE000086000BF0C48006800F000700028F9D0C2
:101AF0000948406820F003000749486008464068EC
:101B000040F00200486000BF0348406800F00C004D
:101B10000828F9D10CBD000000100240002002404E
:101B200010B500F06FF810BD30B51A4800681A4AB9
:101B3000B0FBF2F1B1F1807F01D301201DE021F073
:101B40007F40401E4FF0E022506150170F220028C6
:101B500007DA13071D0E114B00F00F04241F1D554B
:101B600003E013071C0E0E4B1C5400BF00204FF067
:101B7000E022906107201061002008B100BFFEE75D
:101B80004FF0E020006920F001004FF0E0210861F3
:101B900030BD00000000002040420F0018ED00E0C2
:101BA00000E400E010B51348006840F0010011495E
:101BB000086008464068104908400E4948600846D9
:101BC00000680E4908400B4908600846006820F488
:101BD000802008600846406820F4FE0048604FF40A
:101BE0001F008860FFF727FF4FF00060044908607E
:101BF00010BD0000001002400000FFF8FFFFF6FEDD
:101C000008ED00E00448006820B103480068401E69
:101C100001490860704700002800002010B500F05E
:101C2000B3F910BD01F40072B2F5007F00D100BF1E
:101C3000CA430280704710B50022002340F66A14A0
:101C4000A14200D100BF0A1201249440A3B2DC4398
:101C5000048010BD10B502460020108A4FF2FF0329
:101C600018400B884C8823438C882343CC8823431B
:101C70001843108210BD21B1828942F40052828142
:101C800004E082894DF6FF731A408281704700009C
:101C900010B588B00446012144F20400FFF7C0FDEE
:101CA0004FF40070ADF8040018208DF807000320F1
:101CB0008DF8060001A92748FEF756FD4FF4806015
:101CC000ADF8040004208DF8070001A92148FEF7B3
:101CD0004BFD04940020ADF81400ADF81600ADF8EB
:101CE0001800ADF81C000C20ADF81A000020ADF86B
:101CF0000800ADF80A004FF40070ADF80C000020A9
:101D0000ADF80E0004A9144800F084F802A91248A6
:101D1000FFF7A0FF012240F225510F4800F055F8CF
:101D200025208DF8000001208DF8010000208DF89D
:101D3000020001208DF803006846FEF703FE4021F3
:101D40000548FFF76FFF01210348FFF794FF08B034
:101D500010BD00000008014000380140024600208C
:101D6000B1F5007F00D100BF13880B400BB10120FB
:101D700000E00020704770B50246002400230025D3
:101D8000002040F66A16B14200D100BFC1F34215EF
:101D900001F01F03012606FA03F3012D02D19689F3
:101DA000334006E0022D02D1168A334001E0968AC4
:101DB00033400C12012606FA04F41688344013B19D
:101DC0000CB1012000E0002070BDF0B503460024F6
:101DD00000260025002040F66A17B94200D100BF56
:101DE0001846C1F3421401F01F06012707FA06F551
:101DF000012C01D10C3004E0022C01D1103000E0A4
:101E000014301AB107682F43076002E00768AF4338
:101E10000760F0BD2DE9F04786B005460E46002468
:101E2000A24600BFA1460027B08900B100BF2F46DF
:101E30002C8A4CF6FF700440F08804432C82AC8955
:101E40004EF6F3100440B088318908437189084385
:101E50000443AC81AC8A4FF6FF400440B089044390
:101E6000AC8201A8FFF7ECFC1F48874202D1DDF8E5
:101E700010A001E0DDF80CA0A88900F4004040B1FA
:101E80000AEBCA0000EB0A1031684900B0FBF1F818
:101E900007E00AEBCA0000EB0A1031688900B0FBCA
:101EA000F1F86420B8FBF0F004012009642101FB83
:101EB0001089A88900F4004040B1322000EBC9002D
:101EC000B0FBF1F000F00700044308E0322000EB23
:101ED00009106421B0FBF1F000F00F0004432C81E5
:101EE00006B0BDE8F0870000003801400146888850
:101EF000C0F308007047C1F30802828070470000F9
:101F000070B505460E4640210A48FFF78BFE0024B7
:101F10000CE0295D0748FFF7EEFF00BF40210548B0
:101F2000FFF71CFF0028F9D0601CC4B2B442F0DBFC
:101F300070BD00000038014010B50446402107483C
:101F4000FFF770FE21460548FFF7D5FF00BF40218F
:101F50000248FFF703FF0028F9D010BD0038014008
:101F6000002005490870054908700549087040209F
:101F700004490870704700002D0000202E0000204A
:101F80002C0000202F00002010B500240821264836
:101F9000FFF7E4FE10B12448FFF7A8FF40F22551F7
:101FA0002148FFF7E8FE00283CD040F225511E48AA
:101FB000FFF741FE1C48FFF799FFC4B21B480078A9
:101FC00058B9BC2C09D101201849087000201849C3
:101FD000087040201749087024E014480078012850
:101FE00020D1134801780078401C114A1070124823
:101FF000445410460078022803D1201D0D49087072
:1020000010E00B4800780B490978884203D1012081
:102010000A49087006E0064800781C2802DB1C20EC
:102020000349087010BD0000003801402E00002058
:102030002C0000202F000020340000202D00002064
:1020400000BFFEE7F8B505460E46FF20ADF80000DC
:1020500003208DF8020010208DF8030069463748F0
:10206000FEF782FB3548C06840F480703349C86091
:102070003348006820F48070314908602F48C068F8
:1020800040F400602D49C8600846C06840F4806094
:10209000C860E9B22948FEF7F4FBE843C1B227481B
:1020A000FEF7EDFB0A2400E0641E002CFCD124485E
:1020B000006840F48070224908600A2400E0641E31
:1020C000002CFCD11E48006820F480701C49086078
:1020D0000A2400E0641E002CFCD11848C06820F4DB
:1020E00080701649C860F1B21448FEF7CAFBF0438D
:1020F000C1B21248FEF7C3FB0A2400E0641E002CA4
:10210000FCD10E48C06820F400600C49C8600A2465
:1021100000E0641E002CFCD10848C06840F4006058
:102120000649C8600A2400E0641E002CFCD1034864
:10213000C06840F480700149C860F8BD00100140DB
:102140000C0C014002E008C8121F08C1002AFAD195
:1021500070477047002001E001C1121F002AFBD127
:102160007047000010B5FFF7DFFC4FF4E130FFF7D8
:102170008FFDFEF71FFCFEF789FB0648FEF7E0FA2D
:10218000FFF72EFB18B901E0FEF79CFBFCE70020EF
:1021900010BD000020A1070070B50446BC2594F8CE
:1021A00022006840C5B2BC20FFF7C6FE94F82200AA
:1021B000FFF7C2FE2846FFF7BFFEFE20FFF7BCFE7A
:1021C00070BD70B50446BC25002694F82200684016
:1021D000C5B26078454000BF04E0A01C805D45406A
:1021E000701CC6B26078B042F7DCBC20FFF7A4FEDA
:1021F00094F82200FFF7A0FE6078FFF79DFE61785B
:10220000A01CFFF77DFE2846FFF796FEFE20FFF795
:1022100093FE70BD2DE9F04788B004464FF0000AE8
:102220004FF0BC090027BDA103C9CDE906014FF05D
:102230000A08002002900390049005900190B9488C
:10224000007810B908B0BDE8F087B7480078401EA4
:10225000B649085CFE2803D0C12084F822004FE173
:10226000B248007820702078102821D2DFE800F0F2
:102270002008200B200E201120142017201A201DCA
:102280004FF0000A17E04FF0080A14E04FF0090A77
:1022900011E04FF0190A0EE04FF00D0A0BE04FF07D
:1022A000090A08E04FF00D0A05E04FF00D0A02E0C0
:1022B0004FF0000A00BF00BF9B480078001F504548
:1022C00003D0C32084F822001AE1002705E09748D4
:1022D000C05D80EA0909781CC7B293480078801E67
:1022E000B842F4DC90480078801E9049085C48456C
:1022F00003D0C22084F8220002E1207810287DD289
:10230000DFE800F0F808F80FF827F842F860F88BDB
:10231000F8A6F8CF611CA01CFEF74CF884F8220048
:10232000ECE08248857890F8038041680691008946
:10233000ADF81C0006AA41462846FDF77AFF84F84E
:10234000220094F8220018B90120607084F80280FD
:10235000D4E076488578C67890F80480401D0168FE
:1023600006918088ADF81C00A01C06AB42463146A1
:1023700000902846FDF79EFF84F8220094F8220082
:1023800008B910206070B9E068488578C67890F880
:102390000480401D016806918088ADF81C00102261
:1023A00062490B3102A8FDF7DFFE02A806AB4246E8
:1023B000314600902846FDF7BDFF84F8220000203A
:1023C00060709BE059488578C67890F80480401D7D
:1023D000016806918088ADF81C005448D0F80B00C5
:1023E000019001A806AB4246314600902846FEF710
:1023F000E5F884F8220094F8220000E07AE058B969
:10240000A01C06AB4246314600902846FDF7F2FF7D
:1024100084F822000420607070E044488578C67813
:1024200090F80480401D016806918088ADF81C007A
:10243000A01C06AB4246314600902846FDF7DAFF65
:1024400084F8220094F8220008B90420607055E056
:1024500036488578C67890F80480401D016806915A
:102460008088ADF81C003148D0F80B00019001A81D
:1024700006AB4246314600902846FEF71EF984F826
:10248000220094F8220058B9A01C06AB42463146FF
:1024900000902846FDF7AEFF84F82200042060700B
:1024A0002CE022488578C67890F80480401D0168A9
:1024B00006918088ADF81C001C48D0F80B000190F4
:1024C00001A806AB4246314600902846FEF735F893
:1024D00084F8220094F8220058B9A01C06AB4246AA
:1024E000314600902846FDF785FF84F8220004203D
:1024F000607003E0C02084F8220000BF00BF00BF6E
:1025000094F8220018B901200949087002E001205E
:1025100008490870FFF724FD00BF93E6FFFFFFFFA7
:10252000FFFF00002D0000202C00002034000020C0
:102530003000002031000020582500080000002055
:1025400034000000442100088C25000834000020DD
:10255000440400005421000800A24A0400000000C6
:102560000000000001020304060708090000000043
:102570000102030401020304060708090204060815
:0C2580000000000000000040000000000F
:0400000508000131BD
:00000001FF
